{
  "contractName": "TikTok",
  "abi": [
    {
      "inputs": [],
      "stateMutability": "nonpayable",
      "type": "constructor"
    },
    {
      "anonymous": false,
      "inputs": [
        {
          "indexed": false,
          "internalType": "uint256",
          "name": "id",
          "type": "uint256"
        },
        {
          "indexed": false,
          "internalType": "string",
          "name": "caption",
          "type": "string"
        },
        {
          "indexed": false,
          "internalType": "string",
          "name": "url",
          "type": "string"
        },
        {
          "indexed": false,
          "internalType": "uint256",
          "name": "likes",
          "type": "uint256"
        },
        {
          "indexed": false,
          "internalType": "uint256",
          "name": "dislikes",
          "type": "uint256"
        },
        {
          "indexed": false,
          "internalType": "address",
          "name": "owner",
          "type": "address"
        }
      ],
      "name": "VideoCreated",
      "type": "event"
    },
    {
      "anonymous": false,
      "inputs": [
        {
          "indexed": false,
          "internalType": "uint256",
          "name": "id",
          "type": "uint256"
        },
        {
          "indexed": false,
          "internalType": "uint256",
          "name": "dislikes",
          "type": "uint256"
        },
        {
          "indexed": false,
          "internalType": "address",
          "name": "owner",
          "type": "address"
        }
      ],
      "name": "VideoDisliked",
      "type": "event"
    },
    {
      "anonymous": false,
      "inputs": [
        {
          "indexed": false,
          "internalType": "uint256",
          "name": "id",
          "type": "uint256"
        },
        {
          "indexed": false,
          "internalType": "uint256",
          "name": "likes",
          "type": "uint256"
        },
        {
          "indexed": false,
          "internalType": "address",
          "name": "owner",
          "type": "address"
        }
      ],
      "name": "VideoLiked",
      "type": "event"
    },
    {
      "inputs": [
        {
          "internalType": "address",
          "name": "",
          "type": "address"
        },
        {
          "internalType": "uint256",
          "name": "",
          "type": "uint256"
        }
      ],
      "name": "dislikedUsers",
      "outputs": [
        {
          "internalType": "bool",
          "name": "",
          "type": "bool"
        }
      ],
      "stateMutability": "view",
      "type": "function"
    },
    {
      "inputs": [
        {
          "internalType": "address",
          "name": "",
          "type": "address"
        },
        {
          "internalType": "uint256",
          "name": "",
          "type": "uint256"
        }
      ],
      "name": "likedUsers",
      "outputs": [
        {
          "internalType": "bool",
          "name": "",
          "type": "bool"
        }
      ],
      "stateMutability": "view",
      "type": "function"
    },
    {
      "inputs": [
        {
          "internalType": "uint256",
          "name": "",
          "type": "uint256"
        }
      ],
      "name": "likes",
      "outputs": [
        {
          "internalType": "uint256",
          "name": "",
          "type": "uint256"
        }
      ],
      "stateMutability": "view",
      "type": "function"
    },
    {
      "inputs": [],
      "name": "videoCount",
      "outputs": [
        {
          "internalType": "uint256",
          "name": "",
          "type": "uint256"
        }
      ],
      "stateMutability": "view",
      "type": "function"
    },
    {
      "inputs": [
        {
          "internalType": "uint256",
          "name": "",
          "type": "uint256"
        }
      ],
      "name": "videos",
      "outputs": [
        {
          "internalType": "string",
          "name": "caption",
          "type": "string"
        },
        {
          "internalType": "string",
          "name": "url",
          "type": "string"
        },
        {
          "internalType": "uint256",
          "name": "likes",
          "type": "uint256"
        },
        {
          "internalType": "uint256",
          "name": "dislikes",
          "type": "uint256"
        },
        {
          "internalType": "address",
          "name": "owner",
          "type": "address"
        }
      ],
      "stateMutability": "view",
      "type": "function"
    },
    {
      "inputs": [
        {
          "internalType": "string",
          "name": "_caption",
          "type": "string"
        },
        {
          "internalType": "string",
          "name": "_url",
          "type": "string"
        }
      ],
      "name": "createVideo",
      "outputs": [],
      "stateMutability": "nonpayable",
      "type": "function"
    },
    {
      "inputs": [
        {
          "internalType": "uint256",
          "name": "_id",
          "type": "uint256"
        }
      ],
      "name": "likeVideo",
      "outputs": [],
      "stateMutability": "nonpayable",
      "type": "function"
    },
    {
      "inputs": [
        {
          "internalType": "uint256",
          "name": "_id",
          "type": "uint256"
        }
      ],
      "name": "dislikeVideo",
      "outputs": [],
      "stateMutability": "nonpayable",
      "type": "function"
    },
    {
      "inputs": [],
      "name": "getVideos",
      "outputs": [
        {
          "components": [
            {
              "internalType": "string",
              "name": "caption",
              "type": "string"
            },
            {
              "internalType": "string",
              "name": "url",
              "type": "string"
            },
            {
              "internalType": "uint256",
              "name": "likes",
              "type": "uint256"
            },
            {
              "internalType": "uint256",
              "name": "dislikes",
              "type": "uint256"
            },
            {
              "internalType": "address",
              "name": "owner",
              "type": "address"
            },
            {
              "internalType": "address[]",
              "name": "likedUsers",
              "type": "address[]"
            }
          ],
          "internalType": "struct TikTok.Video[]",
          "name": "",
          "type": "tuple[]"
        }
      ],
      "stateMutability": "view",
      "type": "function"
    },
    {
      "inputs": [
        {
          "internalType": "string",
          "name": "_caption",
          "type": "string"
        },
        {
          "internalType": "string",
          "name": "_url",
          "type": "string"
        }
      ],
      "name": "uploadVideo",
      "outputs": [],
      "stateMutability": "nonpayable",
      "type": "function"
    },
    {
      "inputs": [],
      "name": "getNumberOfVideos",
      "outputs": [
        {
          "internalType": "uint256",
          "name": "",
          "type": "uint256"
        }
      ],
      "stateMutability": "view",
      "type": "function"
    }
  ],
  "bytecode": "0x6080604052600060045534801561001557600080fd5b50611e7a806100256000396000f3fe608060405234801561001057600080fd5b50600436106100a95760003560e01c80638a5447c5116100715780638a5447c5146101505780639e61c56a1461016c578063b179fd501461019c578063c61b5f4c146101ba578063e31c61e4146101d8578063e6821bf514610208576100a9565b80630746bfe5146100ae57806327260d5c146100ca57806368f2d165146100e65780636cbb855d146101045780637e9dffe614610120575b600080fd5b6100c860048036038101906100c3919061129e565b61023c565b005b6100e460048036038101906100df919061129e565b610447565b005b6100ee610797565b6040516100fb91906115b3565b60405180910390f35b61011e6004803603810190610119919061170a565b610a7f565b005b61013a6004803603810190610135919061129e565b610cfa565b6040516101479190611791565b60405180910390f35b61016a6004803603810190610165919061170a565b610d12565b005b610186600480360381019061018191906117d8565b610f8d565b6040516101939190611833565b60405180910390f35b6101a4610fbc565b6040516101b19190611791565b60405180910390f35b6101c2610fc6565b6040516101cf9190611791565b60405180910390f35b6101f260048036038101906101ed91906117d8565b610fcc565b6040516101ff9190611833565b60405180910390f35b610222600480360381019061021d919061129e565b610ffb565b6040516102339594939291906118a7565b60405180910390f35b60008111801561024e57506004548111155b61025757600080fd5b600073ffffffffffffffffffffffffffffffffffffffff163373ffffffffffffffffffffffffffffffffffffffff160361029057600080fd5b6000803373ffffffffffffffffffffffffffffffffffffffff1673ffffffffffffffffffffffffffffffffffffffff168152602001908152602001600020600082815260200190815260200160002060009054906101000a900460ff16156102f757600080fd5b600160003373ffffffffffffffffffffffffffffffffffffffff1673ffffffffffffffffffffffffffffffffffffffff168152602001908152602001600020600082815260200190815260200160002060009054906101000a900460ff161561035f57600080fd5b60026000828152602001908152602001600020600301600081548092919061038690611937565b919050555060018060003373ffffffffffffffffffffffffffffffffffffffff1673ffffffffffffffffffffffffffffffffffffffff168152602001908152602001600020600083815260200190815260200160002060006101000a81548160ff0219169083151502179055507fc5f5ea8818f84b4ec2a4a111902bd064d4c7c990c6856214d53344d2b226066d8160026000848152602001908152602001600020600301543360405161043c9392919061197f565b60405180910390a150565b600060026000838152602001908152602001600020905060008211801561047057506004548211155b61047957600080fd5b600073ffffffffffffffffffffffffffffffffffffffff163373ffffffffffffffffffffffffffffffffffffffff16036104b257600080fd5b600015156000803373ffffffffffffffffffffffffffffffffffffffff1673ffffffffffffffffffffffffffffffffffffffff168152602001908152602001600020600084815260200190815260200160002060009054906101000a900460ff16151514610555576040517f08c379a000000000000000000000000000000000000000000000000000000000815260040161054c90611a02565b60405180910390fd5b6000803373ffffffffffffffffffffffffffffffffffffffff1673ffffffffffffffffffffffffffffffffffffffff168152602001908152602001600020600083815260200190815260200160002060009054906101000a900460ff16156105bc57600080fd5b600160003373ffffffffffffffffffffffffffffffffffffffff1673ffffffffffffffffffffffffffffffffffffffff168152602001908152602001600020600083815260200190815260200160002060009054906101000a900460ff161561062457600080fd5b600160036000848152602001908152602001600020546106449190611a22565b600360008481526020019081526020016000208190555080600201600081548092919061067090611937565b919050555080600501339080600181540180825580915050600190039060005260206000200160009091909190916101000a81548173ffffffffffffffffffffffffffffffffffffffff021916908373ffffffffffffffffffffffffffffffffffffffff16021790555060016000803373ffffffffffffffffffffffffffffffffffffffff1673ffffffffffffffffffffffffffffffffffffffff168152602001908152602001600020600084815260200190815260200160002060006101000a81548160ff0219169083151502179055507f6df635996403e3402a84ba259c5650b5e514e63faa1b690613fe2bb2fd99be048260026000858152602001908152602001600020600201543360405161078b9392919061197f565b60405180910390a15050565b6060600060045467ffffffffffffffff8111156107b7576107b66115df565b5b6040519080825280602002602001820160405280156107f057816020015b6107dd611161565b8152602001906001900390816107d55790505b50905060005b600454811015610a7757600260006001836108119190611a22565b81526020019081526020016000206040518060c001604052908160008201805461083a90611a85565b80601f016020809104026020016040519081016040528092919081815260200182805461086690611a85565b80156108b35780601f10610888576101008083540402835291602001916108b3565b820191906000526020600020905b81548152906001019060200180831161089657829003601f168201915b505050505081526020016001820180546108cc90611a85565b80601f01602080910402602001604051908101604052809291908181526020018280546108f890611a85565b80156109455780601f1061091a57610100808354040283529160200191610945565b820191906000526020600020905b81548152906001019060200180831161092857829003601f168201915b5050505050815260200160028201548152602001600382015481526020016004820160009054906101000a900473ffffffffffffffffffffffffffffffffffffffff1673ffffffffffffffffffffffffffffffffffffffff1673ffffffffffffffffffffffffffffffffffffffff16815260200160058201805480602002602001604051908101604052809291908181526020018280548015610a3d57602002820191906000526020600020905b8160009054906101000a900473ffffffffffffffffffffffffffffffffffffffff1673ffffffffffffffffffffffffffffffffffffffff16815260200190600101908083116109f3575b505050505081525050828281518110610a5957610a58611ab6565b5b60200260200101819052508080610a6f90611937565b9150506107f6565b508091505090565b6000825111610a8d57600080fd5b6000815111610a9b57600080fd5b600073ffffffffffffffffffffffffffffffffffffffff163373ffffffffffffffffffffffffffffffffffffffff1603610ad457600080fd5b60046000815480929190610ae790611937565b91905055506040518060c0016040528083815260200182815260200160008152602001600081526020013373ffffffffffffffffffffffffffffffffffffffff168152602001600067ffffffffffffffff811115610b4857610b476115df565b5b604051908082528060200260200182016040528015610b765781602001602082028036833780820191505090505b508152506002600060045481526020019081526020016000206000820151816000019081610ba49190611c91565b506020820151816001019081610bba9190611c91565b50604082015181600201556060820151816003015560808201518160040160006101000a81548173ffffffffffffffffffffffffffffffffffffffff021916908373ffffffffffffffffffffffffffffffffffffffff16021790555060a0820151816005019080519060200190610c329291906111ad565b509050507ff90637f53a052b913d9865c8bb1aae7a6d5b1a3b0a0de2dc7ad0cc9d1c906b4e600454838360008033604051610c7296959493929190611d9e565b60405180910390a17f6df635996403e3402a84ba259c5650b5e514e63faa1b690613fe2bb2fd99be04600454600033604051610cb093929190611e0d565b60405180910390a17fc5f5ea8818f84b4ec2a4a111902bd064d4c7c990c6856214d53344d2b226066d600454600033604051610cee93929190611e0d565b60405180910390a15050565b60036020528060005260406000206000915090505481565b6000825111610d2057600080fd5b6000815111610d2e57600080fd5b600073ffffffffffffffffffffffffffffffffffffffff163373ffffffffffffffffffffffffffffffffffffffff1603610d6757600080fd5b60046000815480929190610d7a90611937565b91905055506040518060c0016040528083815260200182815260200160008152602001600081526020013373ffffffffffffffffffffffffffffffffffffffff168152602001600067ffffffffffffffff811115610ddb57610dda6115df565b5b604051908082528060200260200182016040528015610e095781602001602082028036833780820191505090505b508152506002600060045481526020019081526020016000206000820151816000019081610e379190611c91565b506020820151816001019081610e4d9190611c91565b50604082015181600201556060820151816003015560808201518160040160006101000a81548173ffffffffffffffffffffffffffffffffffffffff021916908373ffffffffffffffffffffffffffffffffffffffff16021790555060a0820151816005019080519060200190610ec59291906111ad565b509050507ff90637f53a052b913d9865c8bb1aae7a6d5b1a3b0a0de2dc7ad0cc9d1c906b4e600454838360008033604051610f0596959493929190611d9e565b60405180910390a17f6df635996403e3402a84ba259c5650b5e514e63faa1b690613fe2bb2fd99be04600454600033604051610f4393929190611e0d565b60405180910390a17fc5f5ea8818f84b4ec2a4a111902bd064d4c7c990c6856214d53344d2b226066d600454600033604051610f8193929190611e0d565b60405180910390a15050565b60016020528160005260406000206020528060005260406000206000915091509054906101000a900460ff1681565b6000600454905090565b60045481565b60006020528160005260406000206020528060005260406000206000915091509054906101000a900460ff1681565b600260205280600052604060002060009150905080600001805461101e90611a85565b80601f016020809104026020016040519081016040528092919081815260200182805461104a90611a85565b80156110975780601f1061106c57610100808354040283529160200191611097565b820191906000526020600020905b81548152906001019060200180831161107a57829003601f168201915b5050505050908060010180546110ac90611a85565b80601f01602080910402602001604051908101604052809291908181526020018280546110d890611a85565b80156111255780601f106110fa57610100808354040283529160200191611125565b820191906000526020600020905b81548152906001019060200180831161110857829003601f168201915b5050505050908060020154908060030154908060040160009054906101000a900473ffffffffffffffffffffffffffffffffffffffff16905085565b6040518060c0016040528060608152602001606081526020016000815260200160008152602001600073ffffffffffffffffffffffffffffffffffffffff168152602001606081525090565b828054828255906000526020600020908101928215611226579160200282015b828111156112255782518260006101000a81548173ffffffffffffffffffffffffffffffffffffffff021916908373ffffffffffffffffffffffffffffffffffffffff160217905550916020019190600101906111cd565b5b5090506112339190611237565b5090565b5b80821115611250576000816000905550600101611238565b5090565b6000604051905090565b600080fd5b600080fd5b6000819050919050565b61127b81611268565b811461128657600080fd5b50565b60008135905061129881611272565b92915050565b6000602082840312156112b4576112b361125e565b5b60006112c284828501611289565b91505092915050565b600081519050919050565b600082825260208201905092915050565b6000819050602082019050919050565b600081519050919050565b600082825260208201905092915050565b60005b83811015611331578082015181840152602081019050611316565b60008484015250505050565b6000601f19601f8301169050919050565b6000611359826112f7565b6113638185611302565b9350611373818560208601611313565b61137c8161133d565b840191505092915050565b61139081611268565b82525050565b600073ffffffffffffffffffffffffffffffffffffffff82169050919050565b60006113c182611396565b9050919050565b6113d1816113b6565b82525050565b600081519050919050565b600082825260208201905092915050565b6000819050602082019050919050565b600061140f83836113c8565b60208301905092915050565b6000602082019050919050565b6000611433826113d7565b61143d81856113e2565b9350611448836113f3565b8060005b838110156114795781516114608882611403565b975061146b8361141b565b92505060018101905061144c565b5085935050505092915050565b600060c08301600083015184820360008601526114a3828261134e565b915050602083015184820360208601526114bd828261134e565b91505060408301516114d26040860182611387565b5060608301516114e56060860182611387565b5060808301516114f860808601826113c8565b5060a083015184820360a08601526115108282611428565b9150508091505092915050565b60006115298383611486565b905092915050565b6000602082019050919050565b6000611549826112cb565b61155381856112d6565b935083602082028501611565856112e7565b8060005b858110156115a15784840389528151611582858261151d565b945061158d83611531565b925060208a01995050600181019050611569565b50829750879550505050505092915050565b600060208201905081810360008301526115cd818461153e565b905092915050565b600080fd5b600080fd5b7f4e487b7100000000000000000000000000000000000000000000000000000000600052604160045260246000fd5b6116178261133d565b810181811067ffffffffffffffff82111715611636576116356115df565b5b80604052505050565b6000611649611254565b9050611655828261160e565b919050565b600067ffffffffffffffff821115611675576116746115df565b5b61167e8261133d565b9050602081019050919050565b82818337600083830152505050565b60006116ad6116a88461165a565b61163f565b9050828152602081018484840111156116c9576116c86115da565b5b6116d484828561168b565b509392505050565b600082601f8301126116f1576116f06115d5565b5b813561170184826020860161169a565b91505092915050565b600080604083850312156117215761172061125e565b5b600083013567ffffffffffffffff81111561173f5761173e611263565b5b61174b858286016116dc565b925050602083013567ffffffffffffffff81111561176c5761176b611263565b5b611778858286016116dc565b9150509250929050565b61178b81611268565b82525050565b60006020820190506117a66000830184611782565b92915050565b6117b5816113b6565b81146117c057600080fd5b50565b6000813590506117d2816117ac565b92915050565b600080604083850312156117ef576117ee61125e565b5b60006117fd858286016117c3565b925050602061180e85828601611289565b9150509250929050565b60008115159050919050565b61182d81611818565b82525050565b60006020820190506118486000830184611824565b92915050565b600082825260208201905092915050565b600061186a826112f7565b611874818561184e565b9350611884818560208601611313565b61188d8161133d565b840191505092915050565b6118a1816113b6565b82525050565b600060a08201905081810360008301526118c1818861185f565b905081810360208301526118d5818761185f565b90506118e46040830186611782565b6118f16060830185611782565b6118fe6080830184611898565b9695505050505050565b7f4e487b7100000000000000000000000000000000000000000000000000000000600052601160045260246000fd5b600061194282611268565b91507fffffffffffffffffffffffffffffffffffffffffffffffffffffffffffffffff820361197457611973611908565b5b600182019050919050565b60006060820190506119946000830186611782565b6119a16020830185611782565b6119ae6040830184611898565b949350505050565b7f796f7520616c7265616479206c696b6564207468697320766964656f00000000600082015250565b60006119ec601c8361184e565b91506119f7826119b6565b602082019050919050565b60006020820190508181036000830152611a1b816119df565b9050919050565b6000611a2d82611268565b9150611a3883611268565b9250828201905080821115611a5057611a4f611908565b5b92915050565b7f4e487b7100000000000000000000000000000000000000000000000000000000600052602260045260246000fd5b60006002820490506001821680611a9d57607f821691505b602082108103611ab057611aaf611a56565b5b50919050565b7f4e487b7100000000000000000000000000000000000000000000000000000000600052603260045260246000fd5b60008190508160005260206000209050919050565b60006020601f8301049050919050565b600082821b905092915050565b600060088302611b477fffffffffffffffffffffffffffffffffffffffffffffffffffffffffffffffff82611b0a565b611b518683611b0a565b95508019841693508086168417925050509392505050565b6000819050919050565b6000611b8e611b89611b8484611268565b611b69565b611268565b9050919050565b6000819050919050565b611ba883611b73565b611bbc611bb482611b95565b848454611b17565b825550505050565b600090565b611bd1611bc4565b611bdc818484611b9f565b505050565b5b81811015611c0057611bf5600082611bc9565b600181019050611be2565b5050565b601f821115611c4557611c1681611ae5565b611c1f84611afa565b81016020851015611c2e578190505b611c42611c3a85611afa565b830182611be1565b50505b505050565b600082821c905092915050565b6000611c6860001984600802611c4a565b1980831691505092915050565b6000611c818383611c57565b9150826002028217905092915050565b611c9a826112f7565b67ffffffffffffffff811115611cb357611cb26115df565b5b611cbd8254611a85565b611cc8828285611c04565b600060209050601f831160018114611cfb5760008415611ce9578287015190505b611cf38582611c75565b865550611d5b565b601f198416611d0986611ae5565b60005b82811015611d3157848901518255600182019150602085019450602081019050611d0c565b86831015611d4e5784890151611d4a601f891682611c57565b8355505b6001600288020188555050505b505050505050565b6000819050919050565b6000611d88611d83611d7e84611d63565b611b69565b611268565b9050919050565b611d9881611d6d565b82525050565b600060c082019050611db36000830189611782565b8181036020830152611dc5818861185f565b90508181036040830152611dd9818761185f565b9050611de86060830186611d8f565b611df56080830185611d8f565b611e0260a0830184611898565b979650505050505050565b6000606082019050611e226000830186611782565b611e2f6020830185611d8f565b611e3c6040830184611898565b94935050505056fea2646970667358221220ca7a3f74bb8c5c1c0c31d34ac9c7a68d96b99aacca9e474a9f3b99bf1658d19264736f6c63430008110033",
  "immutableReferences": {},
  "source": "// SPDX-License-Identifier: MIT\npragma solidity >=0.8.17;\n\ncontract TikTok {\n  constructor() public {\n\n   \n  }\n   struct Video {\n      string caption;\n      string url;\n      uint256 likes;\n      uint256 dislikes;\n      address owner;\n      address[] likedUsers;\n\n    }\n\n    mapping(address => mapping(uint => bool)) public likedUsers;\n\n    mapping(address => mapping(uint => bool)) public dislikedUsers;\n\n    mapping(uint => Video) public videos;\n    mapping(uint256 => uint256) public likes;\n\n    uint public videoCount = 0;\n\n    function createVideo(string memory _caption, string memory _url) public {\n      require(bytes(_caption).length > 0);\n      require(bytes(_url).length > 0);\n      require(msg.sender != address(0));\n      videoCount++;\n      videos[videoCount] = Video(_caption, _url, 0, 0, msg.sender, new address[](0));\n\n      // Trigger an event\n      emit VideoCreated(videoCount, _caption, _url, 0, 0, msg.sender);\n      emit VideoLiked(videoCount, 0, msg.sender);\n      emit VideoDisliked(videoCount, 0, msg.sender);\n    }\n\n    function likeVideo(uint256 _id) public {\n      Video storage _video = videos[_id];\n      require(_id > 0 && _id <= videoCount);\n      require(msg.sender != address(0));\n      require(likedUsers[msg.sender][_id] == false, \"you already liked this video\");\n      require(!likedUsers[msg.sender][_id]);\n      require(!dislikedUsers[msg.sender][_id]);\n      \n      likes[_id] = likes[_id] + 1;\n      _video.likes++;\n      _video.likedUsers.push(msg.sender);\n      likedUsers[msg.sender][_id] = true;\n      emit VideoLiked(_id, videos[_id].likes, msg.sender);\n    }\n\n    function dislikeVideo(uint _id) public {\n      require(_id > 0 && _id <= videoCount);\n      require(msg.sender != address(0));\n      require(!likedUsers[msg.sender][_id]);\n      require(!dislikedUsers[msg.sender][_id]);\n      videos[_id].dislikes++;\n      dislikedUsers[msg.sender][_id] = true;\n      emit VideoDisliked(_id, videos[_id].dislikes, msg.sender);\n    }\n\n    // function getNumberOfVideos() public view returns(uint) {\n    //   return videoCount;\n    // }\n\n    function getVideos() public view returns(Video[] memory) {\n      Video[] memory _videos = new Video[](videoCount);\n      for(uint i = 0; i < videoCount; i++) {\n        _videos[i] = videos[i + 1];\n      }\n      return _videos;\n    }\n    \n\n    function uploadVideo(string memory _caption, string memory _url) public {\n      require(bytes(_caption).length > 0);\n      require(bytes(_url).length > 0);\n      require(msg.sender != address(0));\n      videoCount++;\n      videos[videoCount] = Video(_caption, _url, 0, 0, msg.sender, new address[](0));\n\n      // Trigger an event\n      emit VideoCreated(videoCount, _caption, _url, 0, 0, msg.sender);\n      emit VideoLiked(videoCount, 0, msg.sender);\n      emit VideoDisliked(videoCount, 0, msg.sender);\n    }\n    event VideoCreated(\n      uint id,\n      string caption,\n      string url,\n      uint256 likes,\n      uint256 dislikes,\n      address owner\n    );\n    event VideoLiked (uint id, uint256 likes, address owner);\n    event VideoDisliked (uint id, uint256 dislikes, address owner);\n\n\n    function getNumberOfVideos() public view returns(uint) {\n      return videoCount;\n    }\n\n}\n",
  "sourcePath": "/Users/marvinevins/Desktop/blockchainApps/tiktok/contracts/TikTok.sol",
  "compiler": {
    "name": "solc",
    "version": "0.8.17+commit.8df45f5f.Emscripten.clang"
  },
  "schemaVersion": "3.4.11",
  "updatedAt": "2023-02-10T00:46:45.878Z",
  "devdoc": {
    "kind": "dev",
    "methods": {},
    "version": 1
  },
  "userdoc": {
    "kind": "user",
    "methods": {},
    "version": 1
  }
}